{
  "contractName": "Healthcare",
  "abi": [
    {
      "constant": true,
      "inputs": [],
      "name": "hospitalCount",
      "outputs": [
        {
          "name": "",
          "type": "uint256"
        }
      ],
      "payable": false,
      "stateMutability": "view",
      "type": "function",
      "signature": "0x350dadb7"
    },
    {
      "constant": true,
      "inputs": [],
      "name": "patientCount",
      "outputs": [
        {
          "name": "",
          "type": "uint256"
        }
      ],
      "payable": false,
      "stateMutability": "view",
      "type": "function",
      "signature": "0xa0303c41"
    }
  ],
  "bytecode": "0x608060405260008055600060015534801561001957600080fd5b5060bb806100286000396000f3fe60806040526004361060485763ffffffff7c0100000000000000000000000000000000000000000000000000000000600035041663350dadb78114604d578063a0303c41146071575b600080fd5b348015605857600080fd5b50605f6083565b60408051918252519081900360200190f35b348015607c57600080fd5b50605f6089565b60005481565b6001548156fea165627a7a723058207c614cb3bea0580606507e8f837ef0977001c3b4ddd45b16438bbab81e2f7f0c0029",
  "source": "pragma solidity ^0.5.0;\n\ncontract Healthcare {\n    uint public hospitalCount = 0;\n    uint public patientCount = 0;\n\n    struct Hospital {\n        uint id;\n        string name;\n    }\n\n    struct Patient {\n        uint id;\n        string fname;\n        string lname;\n        \n    }\n}",
  "sourcePath": "/home/winstone/DRIVES/Projects/MP2/Blockchain-for-Healthcare-Monitoring/contracts/Healthcare.sol",
  "compiler": {
    "name": "solc",
    "version": "0.5.0+commit.1d4f565a.Emscripten.clang"
  },
  "schemaVersion": "3.0.1",
  "updatedAt": "2020-11-06T09:31:32.256Z",
  "devdoc": {
    "methods": {}
  },
  "userdoc": {
    "methods": {}
  }
}