{
  "contractName": "Hospital",
  "abi": [
    {
      "constant": true,
      "inputs": [],
      "name": "hospitalCount",
      "outputs": [
        {
          "name": "",
          "type": "uint256"
        }
      ],
      "payable": false,
      "stateMutability": "view",
      "type": "function",
      "signature": "0x350dadb7"
    },
    {
      "constant": true,
      "inputs": [
        {
          "name": "",
          "type": "uint256"
        }
      ],
      "name": "hospitals",
      "outputs": [
        {
          "name": "id",
          "type": "uint256"
        },
        {
          "name": "name",
          "type": "string"
        }
      ],
      "payable": false,
      "stateMutability": "view",
      "type": "function",
      "signature": "0x81dc6fd2"
    },
    {
      "inputs": [],
      "payable": false,
      "stateMutability": "nonpayable",
      "type": "constructor",
      "signature": "constructor"
    },
    {
      "constant": false,
      "inputs": [
        {
          "name": "_name",
          "type": "string"
        }
      ],
      "name": "createHospital",
      "outputs": [],
      "payable": false,
      "stateMutability": "nonpayable",
      "type": "function",
      "signature": "0x55dc1066"
    }
  ],
  "bytecode": "0x60806040526000805534801561001457600080fd5b5060408051808201909152600d81527f44656d6f20486f73706974616c00000000000000000000000000000000000000602082015261005b90640100000000610060810204565b610147565b600080546001908101808355604080518082018252828152602080820187815293865284815291909420845181559151805192936100a6939085019291909101906100ac565b50505050565b828054600181600116156101000203166002900490600052602060002090601f016020900481019282601f106100ed57805160ff191683800117855561011a565b8280016001018555821561011a579182015b8281111561011a5782518255916020019190600101906100ff565b5061012692915061012a565b5090565b61014491905b808211156101265760008155600101610130565b90565b61039f806101566000396000f3fe6080604052600436106100565763ffffffff7c0100000000000000000000000000000000000000000000000000000000600035041663350dadb7811461005b57806355dc10661461008257806381dc6fd214610137575b600080fd5b34801561006757600080fd5b506100706101e0565b60408051918252519081900360200190f35b34801561008e57600080fd5b50610135600480360360208110156100a557600080fd5b8101906020810181356401000000008111156100c057600080fd5b8201836020820111156100d257600080fd5b803590602001918460018302840111640100000000831117156100f457600080fd5b91908080601f0160208091040260200160405190810160405280939291908181526020018383808284376000920191909152509295506101e6945050505050565b005b34801561014357600080fd5b506101616004803603602081101561015a57600080fd5b5035610232565b6040518083815260200180602001828103825283818151815260200191508051906020019080838360005b838110156101a457818101518382015260200161018c565b50505050905090810190601f1680156101d15780820380516001836020036101000a031916815260200191505b50935050505060405180910390f35b60005481565b6000805460019081018083556040805180820182528281526020808201878152938652848152919094208451815591518051929361022c939085019291909101906102d8565b50505050565b600160208181526000928352604092839020805481840180548651600296821615610100026000190190911695909504601f810185900485028601850190965285855290949193929091908301828280156102ce5780601f106102a3576101008083540402835291602001916102ce565b820191906000526020600020905b8154815290600101906020018083116102b157829003601f168201915b5050505050905082565b828054600181600116156101000203166002900490600052602060002090601f016020900481019282601f1061031957805160ff1916838001178555610346565b82800160010185558215610346579182015b8281111561034657825182559160200191906001019061032b565b50610352929150610356565b5090565b61037091905b80821115610352576000815560010161035c565b9056fea165627a7a723058200881747aecc8c0a9f2590817baaa7069c157914cda559c7fed2289f937e2b6eb0029",
  "source": "pragma solidity ^0.5.0;\n\ncontract Hospital {\n    uint public hospitalCount = 0;\n\n    struct Hospital {\n        uint id;\n        string name;\n    }\n\n    mapping(uint => Hospital) public hospitals;\n\n    constructor() public {\n        createHospital(\"Demo Hospital\");\n    }\n\n    function createHospital(string memory _name) public {\n        hospitalCount ++;\n        hospitals[hospitalCount] = Hospital(hospitalCount,_name);\n    }\n    \n}",
  "sourcePath": "/home/winstone/DRIVES/Projects/MP2/Blockchain-for-Healthcare-Monitoring/contracts/Hospital.sol",
  "compiler": {
    "name": "solc",
    "version": "0.5.0+commit.1d4f565a.Emscripten.clang"
  },
  "schemaVersion": "3.0.1",
  "updatedAt": "2020-11-06T09:31:32.257Z",
  "devdoc": {
    "methods": {}
  },
  "userdoc": {
    "methods": {}
  }
}