{
  "contractName": "Patient",
  "abi": [
    {
      "constant": true,
      "inputs": [
        {
          "name": "",
          "type": "uint256"
        }
      ],
      "name": "patients",
      "outputs": [
        {
          "name": "id",
          "type": "uint256"
        },
        {
          "name": "fname",
          "type": "string"
        },
        {
          "name": "lname",
          "type": "string"
        },
        {
          "name": "heartbeat",
          "type": "uint256"
        },
        {
          "name": "CO",
          "type": "uint256"
        },
        {
          "name": "CO2",
          "type": "uint256"
        },
        {
          "name": "body_temp_w",
          "type": "uint256"
        },
        {
          "name": "body_temp_d",
          "type": "uint256"
        },
        {
          "name": "room_temp_w",
          "type": "uint256"
        },
        {
          "name": "room_temp_d",
          "type": "uint256"
        },
        {
          "name": "hospital_id",
          "type": "uint256"
        }
      ],
      "payable": false,
      "stateMutability": "view",
      "type": "function",
      "signature": "0x93119a83"
    },
    {
      "constant": true,
      "inputs": [],
      "name": "patientCount",
      "outputs": [
        {
          "name": "",
          "type": "uint256"
        }
      ],
      "payable": false,
      "stateMutability": "view",
      "type": "function",
      "signature": "0xa0303c41"
    },
    {
      "constant": false,
      "inputs": [
        {
          "name": "_fname",
          "type": "string"
        },
        {
          "name": "_lname",
          "type": "string"
        },
        {
          "name": "_heartbeat",
          "type": "uint256"
        },
        {
          "name": "_CO",
          "type": "uint256"
        },
        {
          "name": "_CO2",
          "type": "uint256"
        },
        {
          "name": "_body_temp_w",
          "type": "uint256"
        },
        {
          "name": "_body_temp_d",
          "type": "uint256"
        },
        {
          "name": "_room_temp_w",
          "type": "uint256"
        },
        {
          "name": "_room_temp_d",
          "type": "uint256"
        },
        {
          "name": "_hospital_id",
          "type": "uint256"
        }
      ],
      "name": "createPatient",
      "outputs": [],
      "payable": false,
      "stateMutability": "nonpayable",
      "type": "function",
      "signature": "0x2ec21ca3"
    }
  ],
  "bytecode": "0x60806040526000805534801561001457600080fd5b5061067c806100246000396000f3fe6080604052600436106100565763ffffffff7c01000000000000000000000000000000000000000000000000000000006000350416632ec21ca3811461005b57806393119a83146101c1578063a0303c4114610308575b600080fd5b34801561006757600080fd5b506101bf600480360361014081101561007f57600080fd5b81019060208101813564010000000081111561009a57600080fd5b8201836020820111156100ac57600080fd5b803590602001918460018302840111640100000000831117156100ce57600080fd5b91908080601f016020809104026020016040519081016040528093929190818152602001838380828437600092019190915250929594936020810193503591505064010000000081111561012157600080fd5b82018360208201111561013357600080fd5b8035906020019184600183028401116401000000008311171561015557600080fd5b91908080601f0160208091040260200160405190810160405280939291908181526020018383808284376000920191909152509295505082359350505060208101359060408101359060608101359060808101359060a08101359060c08101359060e0013561032f565b005b3480156101cd57600080fd5b506101eb600480360360208110156101e457600080fd5b5035610447565b604051808c815260200180602001806020018b81526020018a815260200189815260200188815260200187815260200186815260200185815260200184815260200183810383528d818151815260200191508051906020019080838360005b8381101561026257818101518382015260200161024a565b50505050905090810190601f16801561028f5780820380516001836020036101000a031916815260200191505b5083810382528c5181528c516020918201918e019080838360005b838110156102c25781810151838201526020016102aa565b50505050905090810190601f1680156102ef5780820380516001836020036101000a031916815260200191505b509d505050505050505050505050505060405180910390f35b34801561031457600080fd5b5061031d6105af565b60408051918252519081900360200190f35b60008081548092919060010191905055506101606040519081016040528060005481526020018b81526020018a81526020018981526020018881526020018781526020018681526020018581526020018481526020018381526020018281525060016000805481526020019081526020016000206000820151816000015560208201518160010190805190602001906103c99291906105b5565b50604082015180516103e59160028401916020909101906105b5565b50606082015160038201556080820151600482015560a0820151600582015560c0820151600682015560e082015160078201556101008201516008820155610120820151600982015561014090910151600a9091015550505050505050505050565b600160208181526000928352604092839020805481840180548651600296821615610100026000190190911695909504601f810185900485028601850190965285855290949193929091908301828280156104e35780601f106104b8576101008083540402835291602001916104e3565b820191906000526020600020905b8154815290600101906020018083116104c657829003601f168201915b50505060028085018054604080516020601f60001961010060018716150201909416959095049283018590048502810185019091528181529596959450909250908301828280156105755780601f1061054a57610100808354040283529160200191610575565b820191906000526020600020905b81548152906001019060200180831161055857829003601f168201915b50505050509080600301549080600401549080600501549080600601549080600701549080600801549080600901549080600a015490508b565b60005481565b828054600181600116156101000203166002900490600052602060002090601f016020900481019282601f106105f657805160ff1916838001178555610623565b82800160010185558215610623579182015b82811115610623578251825591602001919060010190610608565b5061062f929150610633565b5090565b61064d91905b8082111561062f5760008155600101610639565b9056fea165627a7a7230582041f46b666059656e664b077ac9b9dc104b1970c80eac806b5fddb6055126843d0029",
  "source": "pragma solidity ^0.5.0;\n\nimport \"./Hospital.sol\";\n\ncontract Patient {\n    uint public patientCount = 0;\n\n    struct Patient {\n        uint id;\n        string fname;\n        string lname;\n        \n        uint heartbeat;\n        uint CO;\n        uint CO2;\n        uint body_temp_w;\n        uint body_temp_d;\n        uint room_temp_w;\n        uint room_temp_d;\n\n        uint hospital_id;\n    }\n\n    mapping(uint => Patient) public patients;\n\n    function createPatient(string memory _fname, string memory _lname, uint _heartbeat,uint _CO, uint _CO2, uint _body_temp_w, uint _body_temp_d, uint _room_temp_w, uint _room_temp_d, uint _hospital_id) public {\n        patientCount ++;\n        patients[patientCount] = Patient(patientCount,_fname,_lname,_heartbeat,_CO,_CO2,_body_temp_w,_body_temp_d,_room_temp_w,_room_temp_d,_hospital_id);\n    }\n\n}",
  "sourcePath": "/home/winstone/DRIVES/Projects/MP2/Blockchain-for-Healthcare-Monitoring/contracts/Patient.sol",
  "compiler": {
    "name": "solc",
    "version": "0.5.0+commit.1d4f565a.Emscripten.clang"
  },
  "schemaVersion": "3.0.1",
  "updatedAt": "2020-11-02T11:27:25.158Z",
  "devdoc": {
    "methods": {}
  },
  "userdoc": {
    "methods": {}
  }
}