{
  "contractName": "Patient",
  "abi": [
    {
      "constant": true,
      "inputs": [
        {
          "name": "",
          "type": "uint256"
        }
      ],
      "name": "patients",
      "outputs": [
        {
          "name": "id",
          "type": "uint256"
        },
        {
          "name": "fname",
          "type": "string"
        },
        {
          "name": "lname",
          "type": "string"
        },
        {
          "name": "heartbeat",
          "type": "uint256"
        },
        {
          "name": "CO",
          "type": "uint256"
        },
        {
          "name": "CO2",
          "type": "uint256"
        },
        {
          "name": "body_temp_w",
          "type": "uint256"
        },
        {
          "name": "body_temp_d",
          "type": "uint256"
        },
        {
          "name": "room_temp_w",
          "type": "uint256"
        },
        {
          "name": "room_temp_d",
          "type": "uint256"
        },
        {
          "name": "hospital_id",
          "type": "uint256"
        },
        {
          "name": "diagnosis",
          "type": "string"
        }
      ],
      "payable": false,
      "stateMutability": "view",
      "type": "function",
      "signature": "0x93119a83"
    },
    {
      "constant": true,
      "inputs": [],
      "name": "patientCount",
      "outputs": [
        {
          "name": "",
          "type": "uint256"
        }
      ],
      "payable": false,
      "stateMutability": "view",
      "type": "function",
      "signature": "0xa0303c41"
    },
    {
      "inputs": [],
      "payable": false,
      "stateMutability": "nonpayable",
      "type": "constructor",
      "signature": "constructor"
    },
    {
      "constant": false,
      "inputs": [
        {
          "name": "_fname",
          "type": "string"
        },
        {
          "name": "_lname",
          "type": "string"
        },
        {
          "name": "_heartbeat",
          "type": "uint256"
        },
        {
          "name": "_CO",
          "type": "uint256"
        },
        {
          "name": "_CO2",
          "type": "uint256"
        },
        {
          "name": "_body_temp_w",
          "type": "uint256"
        },
        {
          "name": "_body_temp_d",
          "type": "uint256"
        },
        {
          "name": "_room_temp_w",
          "type": "uint256"
        },
        {
          "name": "_room_temp_d",
          "type": "uint256"
        },
        {
          "name": "_hospital_id",
          "type": "uint256"
        },
        {
          "name": "_diagnosis",
          "type": "string"
        }
      ],
      "name": "createPatient",
      "outputs": [],
      "payable": false,
      "stateMutability": "nonpayable",
      "type": "function",
      "signature": "0x76b7f7bc"
    },
    {
      "constant": false,
      "inputs": [
        {
          "name": "pid",
          "type": "uint256"
        },
        {
          "name": "_diagnosis",
          "type": "string"
        }
      ],
      "name": "addDiagnosis",
      "outputs": [],
      "payable": false,
      "stateMutability": "nonpayable",
      "type": "function",
      "signature": "0xae97c42a"
    }
  ],
  "bytecode": "0x60806040526000805534801561001457600080fd5b506100b86040805190810160405280600781526020017f50617469656e74000000000000000000000000000000000000000000000000008152506040805190810160405280600181526020017f31000000000000000000000000000000000000000000000000000000000000008152506046600a80602460056026600460016020604051908101604052806000815250610161640100000000026401000000009004565b61015c6040805190810160405280600781526020017f50617469656e74000000000000000000000000000000000000000000000000008152506040805190810160405280600181526020017f32000000000000000000000000000000000000000000000000000000000000008152506051600c6008602460036025600460016020604051908101604052806000815250610161640100000000026401000000009004565b610338565b60008081548092919060010191905055506101806040519081016040528060005481526020018c81526020018b81526020018a815260200189815260200188815260200187815260200186815260200185815260200184815260200183815260200182815250600160008054815260200190815260200160002060008201518160000155602082015181600101908051906020019061020192919061029d565b506040820151805161021d91600284019160209091019061029d565b50606082015160038201556080820151600482015560a0820151600582015560c0820151600682015560e0820151600782015561010082015160088201556101208201516009820155610140820151600a820155610160820151805161028d91600b84019160209091019061029d565b5050505050505050505050505050565b828054600181600116156101000203166002900490600052602060002090601f016020900481019282601f106102de57805160ff191683800117855561030b565b8280016001018555821561030b579182015b8281111561030b5782518255916020019190600101906102f0565b5061031792915061031b565b5090565b61033591905b808211156103175760008155600101610321565b90565b610923806103476000396000f3fe6080604052600436106100615763ffffffff7c010000000000000000000000000000000000000000000000000000000060003504166376b7f7bc811461006657806393119a8314610259578063a0303c4114610409578063ae97c42a14610430575b600080fd5b34801561007257600080fd5b50610257600480360361016081101561008a57600080fd5b8101906020810181356401000000008111156100a557600080fd5b8201836020820111156100b757600080fd5b803590602001918460018302840111640100000000831117156100d957600080fd5b91908080601f016020809104026020016040519081016040528093929190818152602001838380828437600092019190915250929594936020810193503591505064010000000081111561012c57600080fd5b82018360208201111561013e57600080fd5b8035906020019184600183028401116401000000008311171561016057600080fd5b91908080601f016020809104026020016040519081016040528093929190818152602001838380828437600092019190915250929584359560208601359560408101359550606081013594506080810135935060a08101359260c08201359260e08301359261012081019061010001356401000000008111156101e257600080fd5b8201836020820111156101f457600080fd5b8035906020019184600183028401116401000000008311171561021657600080fd5b91908080601f0160208091040260200160405190810160405280939291908181526020018383808284376000920191909152509295506104ea945050505050565b005b34801561026557600080fd5b506102836004803603602081101561027c57600080fd5b5035610626565b604051808d815260200180602001806020018c81526020018b81526020018a81526020018981526020018881526020018781526020018681526020018581526020018060200184810384528f818151815260200191508051906020019080838360005b838110156102fe5781810151838201526020016102e6565b50505050905090810190601f16801561032b5780820380516001836020036101000a031916815260200191505b5084810383528e818151815260200191508051906020019080838360005b83811015610361578181015183820152602001610349565b50505050905090810190601f16801561038e5780820380516001836020036101000a031916815260200191505b50848103825285518152855160209182019187019080838360005b838110156103c15781810151838201526020016103a9565b50505050905090810190601f1680156103ee5780820380516001836020036101000a031916815260200191505b509f5050505050505050505050505050505060405180910390f35b34801561041557600080fd5b5061041e61082c565b60408051918252519081900360200190f35b34801561043c57600080fd5b506102576004803603604081101561045357600080fd5b8135919081019060408101602082013564010000000081111561047557600080fd5b82018360208201111561048757600080fd5b803590602001918460018302840111640100000000831117156104a957600080fd5b91908080601f016020809104026020016040519081016040528093929190818152602001838380828437600092019190915250929550610832945050505050565b60008081548092919060010191905055506101806040519081016040528060005481526020018c81526020018b81526020018a815260200189815260200188815260200187815260200186815260200185815260200184815260200183815260200182815250600160008054815260200190815260200160002060008201518160000155602082015181600101908051906020019061058a92919061085c565b50604082015180516105a691600284019160209091019061085c565b50606082015160038201556080820151600482015560a0820151600582015560c0820151600682015560e0820151600782015561010082015160088201556101208201516009820155610140820151600a820155610160820151805161061691600b84019160209091019061085c565b5050505050505050505050505050565b600160208181526000928352604092839020805481840180548651600296821615610100026000190190911695909504601f810185900485028601850190965285855290949193929091908301828280156106c25780601f10610697576101008083540402835291602001916106c2565b820191906000526020600020905b8154815290600101906020018083116106a557829003601f168201915b50505060028085018054604080516020601f60001961010060018716150201909416959095049283018590048502810185019091528181529596959450909250908301828280156107545780601f1061072957610100808354040283529160200191610754565b820191906000526020600020905b81548152906001019060200180831161073757829003601f168201915b50505050509080600301549080600401549080600501549080600601549080600701549080600801549080600901549080600a01549080600b018054600181600116156101000203166002900480601f0160208091040260200160405190810160405280929190818152602001828054600181600116156101000203166002900480156108225780601f106107f757610100808354040283529160200191610822565b820191906000526020600020905b81548152906001019060200180831161080557829003601f168201915b505050505090508c565b60005481565b6000828152600160209081526040909120825161085792600b9092019184019061085c565b505050565b828054600181600116156101000203166002900490600052602060002090601f016020900481019282601f1061089d57805160ff19168380011785556108ca565b828001600101855582156108ca579182015b828111156108ca5782518255916020019190600101906108af565b506108d69291506108da565b5090565b6108f491905b808211156108d657600081556001016108e0565b9056fea165627a7a72305820d17eef25f7c60a015f4a156464f0182a7e5db5b7fa516db035e343bdc2ce5aab0029",
  "source": "pragma solidity ^0.5.0;\n\nimport \"./Hospital.sol\";\n\ncontract Patient {\n    uint public patientCount = 0;\n\n    struct Patient {\n        uint id;\n        string fname;\n        string lname;\n        \n        uint heartbeat;\n        uint CO;\n        uint CO2;\n        uint body_temp_w;\n        uint body_temp_d;\n        uint room_temp_w;\n        uint room_temp_d;\n\n        uint hospital_id;\n        string diagnosis;\n    }\n\n    mapping(uint => Patient) public patients;\n    constructor() public {\n        createPatient('Patient','1',70,10,10,36,5,38,4,1,'');\n        createPatient('Patient','2',81,12,8,36,3,37,4,1,'');\n    }\n\n    function createPatient(string memory _fname, string memory _lname, uint _heartbeat,uint _CO, uint _CO2, uint _body_temp_w, uint _body_temp_d, uint _room_temp_w, uint _room_temp_d, uint _hospital_id, string memory _diagnosis) public {\n        patientCount ++;\n        patients[patientCount] = Patient(patientCount,_fname,_lname,_heartbeat,_CO,_CO2,_body_temp_w,_body_temp_d,_room_temp_w,_room_temp_d,_hospital_id, _diagnosis);\n    }\n\n    function addDiagnosis(uint pid, string memory _diagnosis) public {\n        patients[pid].diagnosis = _diagnosis;\n    }\n\n}",
  "sourcePath": "/home/winstone/DRIVES/Projects/MP2/Blockchain-for-Healthcare-Monitoring/contracts/Patient.sol",
  "compiler": {
    "name": "solc",
    "version": "0.5.0+commit.1d4f565a.Emscripten.clang"
  },
  "schemaVersion": "3.0.1",
  "updatedAt": "2020-11-09T16:51:03.388Z",
  "devdoc": {
    "methods": {}
  },
  "userdoc": {
    "methods": {}
  }
}