{
  "contractName": "Patient",
  "abi": [
    {
      "constant": true,
      "inputs": [
        {
          "name": "",
          "type": "uint256"
        }
      ],
      "name": "patients",
      "outputs": [
        {
          "name": "id",
          "type": "uint256"
        },
        {
          "name": "fname",
          "type": "string"
        },
        {
          "name": "lname",
          "type": "string"
        },
        {
          "name": "heartbeat",
          "type": "uint256"
        },
        {
          "name": "CO",
          "type": "uint256"
        },
        {
          "name": "CO2",
          "type": "uint256"
        },
        {
          "name": "body_temp_w",
          "type": "uint256"
        },
        {
          "name": "body_temp_d",
          "type": "uint256"
        },
        {
          "name": "room_temp_w",
          "type": "uint256"
        },
        {
          "name": "room_temp_d",
          "type": "uint256"
        },
        {
          "name": "hospital_id",
          "type": "uint256"
        },
        {
          "name": "diagnosis",
          "type": "string"
        }
      ],
      "payable": false,
      "stateMutability": "view",
      "type": "function"
    },
    {
      "constant": true,
      "inputs": [],
      "name": "patientCount",
      "outputs": [
        {
          "name": "",
          "type": "uint256"
        }
      ],
      "payable": false,
      "stateMutability": "view",
      "type": "function"
    },
    {
      "inputs": [],
      "payable": false,
      "stateMutability": "nonpayable",
      "type": "constructor"
    },
    {
      "anonymous": false,
      "inputs": [
        {
          "indexed": false,
          "name": "id",
          "type": "uint256"
        },
        {
          "indexed": false,
          "name": "fname",
          "type": "string"
        },
        {
          "indexed": false,
          "name": "lname",
          "type": "string"
        },
        {
          "indexed": false,
          "name": "heartbeat",
          "type": "uint256"
        },
        {
          "indexed": false,
          "name": "CO",
          "type": "uint256"
        },
        {
          "indexed": false,
          "name": "CO2",
          "type": "uint256"
        },
        {
          "indexed": false,
          "name": "body_temp_w",
          "type": "uint256"
        },
        {
          "indexed": false,
          "name": "body_temp_d",
          "type": "uint256"
        },
        {
          "indexed": false,
          "name": "room_temp_w",
          "type": "uint256"
        },
        {
          "indexed": false,
          "name": "room_temp_d",
          "type": "uint256"
        },
        {
          "indexed": false,
          "name": "hospital_id",
          "type": "uint256"
        },
        {
          "indexed": false,
          "name": "diagnosis",
          "type": "string"
        }
      ],
      "name": "patient_node_added",
      "type": "event"
    },
    {
      "anonymous": false,
      "inputs": [
        {
          "indexed": false,
          "name": "pid",
          "type": "uint256"
        },
        {
          "indexed": false,
          "name": "diagnosis",
          "type": "string"
        }
      ],
      "name": "patient_diagnosed",
      "type": "event"
    },
    {
      "constant": false,
      "inputs": [
        {
          "name": "_fname",
          "type": "string"
        },
        {
          "name": "_lname",
          "type": "string"
        },
        {
          "name": "_heartbeat",
          "type": "uint256"
        },
        {
          "name": "_CO",
          "type": "uint256"
        },
        {
          "name": "_CO2",
          "type": "uint256"
        },
        {
          "name": "_body_temp_w",
          "type": "uint256"
        },
        {
          "name": "_body_temp_d",
          "type": "uint256"
        },
        {
          "name": "_room_temp_w",
          "type": "uint256"
        },
        {
          "name": "_room_temp_d",
          "type": "uint256"
        },
        {
          "name": "_hospital_id",
          "type": "uint256"
        },
        {
          "name": "_diagnosis",
          "type": "string"
        }
      ],
      "name": "createPatient",
      "outputs": [],
      "payable": false,
      "stateMutability": "nonpayable",
      "type": "function"
    },
    {
      "constant": false,
      "inputs": [
        {
          "name": "pid",
          "type": "uint256"
        },
        {
          "name": "_diagnosis",
          "type": "string"
        }
      ],
      "name": "addDiagnosis",
      "outputs": [],
      "payable": false,
      "stateMutability": "nonpayable",
      "type": "function"
    }
  ],
  "bytecode": "0x6080604052600080553480156200001557600080fd5b50620000bb6040805190810160405280600781526020017f50617469656e74000000000000000000000000000000000000000000000000008152506040805190810160405280600181526020017f31000000000000000000000000000000000000000000000000000000000000008152506046600a8060246005602660046001602060405190810160405280600081525062000167640100000000026401000000009004565b620001616040805190810160405280600781526020017f50617469656e74000000000000000000000000000000000000000000000000008152506040805190810160405280600181526020017f32000000000000000000000000000000000000000000000000000000000000008152506051600c600860246003602560046001602060405190810160405280600081525062000167640100000000026401000000009004565b6200050c565b60008081548092919060010191905055506101806040519081016040528060005481526020018c81526020018b81526020018a81526020018981526020018881526020018781526020018681526020018581526020018481526020018381526020018281525060016000805481526020019081526020016000206000820151816000015560208201518160010190805190602001906200020992919062000467565b50604082015180516200022791600284019160209091019062000467565b50606082015160038201556080820151600482015560a0820151600582015560c0820151600682015560e0820151600782015561010082015160088201556101208201516009820155610140820151600a82015561016082015180516200029991600b84019160209091019062000467565b509050507f9a4a36ff93a4a8e130eec3596ff323087c6dcb7c8c014ac77ecb5f31b538aa816000548c8c8c8c8c8c8c8c8c8c8c604051808d815260200180602001806020018c81526020018b81526020018a81526020018981526020018881526020018781526020018681526020018581526020018060200184810384528f818151815260200191508051906020019080838360005b83811015620003495781810151838201526020016200032f565b50505050905090810190601f168015620003775780820380516001836020036101000a031916815260200191505b5084810383528e818151815260200191508051906020019080838360005b83811015620003af57818101518382015260200162000395565b50505050905090810190601f168015620003dd5780820380516001836020036101000a031916815260200191505b50848103825285518152855160209182019187019080838360005b8381101562000412578181015183820152602001620003f8565b50505050905090810190601f168015620004405780820380516001836020036101000a031916815260200191505b509f5050505050505050505050505050505060405180910390a15050505050505050505050565b828054600181600116156101000203166002900490600052602060002090601f016020900481019282601f10620004aa57805160ff1916838001178555620004da565b82800160010185558215620004da579182015b82811115620004da578251825591602001919060010190620004bd565b50620004e8929150620004ec565b5090565b6200050991905b80821115620004e85760008155600101620004f3565b90565b610b79806200051c6000396000f3fe6080604052600436106100615763ffffffff7c010000000000000000000000000000000000000000000000000000000060003504166376b7f7bc811461006657806393119a8314610259578063a0303c4114610409578063ae97c42a14610430575b600080fd5b34801561007257600080fd5b50610257600480360361016081101561008a57600080fd5b8101906020810181356401000000008111156100a557600080fd5b8201836020820111156100b757600080fd5b803590602001918460018302840111640100000000831117156100d957600080fd5b91908080601f016020809104026020016040519081016040528093929190818152602001838380828437600092019190915250929594936020810193503591505064010000000081111561012c57600080fd5b82018360208201111561013e57600080fd5b8035906020019184600183028401116401000000008311171561016057600080fd5b91908080601f016020809104026020016040519081016040528093929190818152602001838380828437600092019190915250929584359560208601359560408101359550606081013594506080810135935060a08101359260c08201359260e08301359261012081019061010001356401000000008111156101e257600080fd5b8201836020820111156101f457600080fd5b8035906020019184600183028401116401000000008311171561021657600080fd5b91908080601f0160208091040260200160405190810160405280939291908181526020018383808284376000920191909152509295506104ea945050505050565b005b34801561026557600080fd5b506102836004803603602081101561027c57600080fd5b50356107db565b604051808d815260200180602001806020018c81526020018b81526020018a81526020018981526020018881526020018781526020018681526020018581526020018060200184810384528f818151815260200191508051906020019080838360005b838110156102fe5781810151838201526020016102e6565b50505050905090810190601f16801561032b5780820380516001836020036101000a031916815260200191505b5084810383528e818151815260200191508051906020019080838360005b83811015610361578181015183820152602001610349565b50505050905090810190601f16801561038e5780820380516001836020036101000a031916815260200191505b50848103825285518152855160209182019187019080838360005b838110156103c15781810151838201526020016103a9565b50505050905090810190601f1680156103ee5780820380516001836020036101000a031916815260200191505b509f5050505050505050505050505050505060405180910390f35b34801561041557600080fd5b5061041e6109e1565b60408051918252519081900360200190f35b34801561043c57600080fd5b506102576004803603604081101561045357600080fd5b8135919081019060408101602082013564010000000081111561047557600080fd5b82018360208201111561048757600080fd5b803590602001918460018302840111640100000000831117156104a957600080fd5b91908080601f0160208091040260200160405190810160405280939291908181526020018383808284376000920191909152509295506109e7945050505050565b60008081548092919060010191905055506101806040519081016040528060005481526020018c81526020018b81526020018a815260200189815260200188815260200187815260200186815260200185815260200184815260200183815260200182815250600160008054815260200190815260200160002060008201518160000155602082015181600101908051906020019061058a929190610ab2565b50604082015180516105a6916002840191602090910190610ab2565b50606082015160038201556080820151600482015560a0820151600582015560c0820151600682015560e0820151600782015561010082015160088201556101208201516009820155610140820151600a820155610160820151805161061691600b840191602090910190610ab2565b509050507f9a4a36ff93a4a8e130eec3596ff323087c6dcb7c8c014ac77ecb5f31b538aa816000548c8c8c8c8c8c8c8c8c8c8c604051808d815260200180602001806020018c81526020018b81526020018a81526020018981526020018881526020018781526020018681526020018581526020018060200184810384528f818151815260200191508051906020019080838360005b838110156106c45781810151838201526020016106ac565b50505050905090810190601f1680156106f15780820380516001836020036101000a031916815260200191505b5084810383528e818151815260200191508051906020019080838360005b8381101561072757818101518382015260200161070f565b50505050905090810190601f1680156107545780820380516001836020036101000a031916815260200191505b50848103825285518152855160209182019187019080838360005b8381101561078757818101518382015260200161076f565b50505050905090810190601f1680156107b45780820380516001836020036101000a031916815260200191505b509f5050505050505050505050505050505060405180910390a15050505050505050505050565b600160208181526000928352604092839020805481840180548651600296821615610100026000190190911695909504601f810185900485028601850190965285855290949193929091908301828280156108775780601f1061084c57610100808354040283529160200191610877565b820191906000526020600020905b81548152906001019060200180831161085a57829003601f168201915b50505060028085018054604080516020601f60001961010060018716150201909416959095049283018590048502810185019091528181529596959450909250908301828280156109095780601f106108de57610100808354040283529160200191610909565b820191906000526020600020905b8154815290600101906020018083116108ec57829003601f168201915b50505050509080600301549080600401549080600501549080600601549080600701549080600801549080600901549080600a01549080600b018054600181600116156101000203166002900480601f0160208091040260200160405190810160405280929190818152602001828054600181600116156101000203166002900480156109d75780601f106109ac576101008083540402835291602001916109d7565b820191906000526020600020905b8154815290600101906020018083116109ba57829003601f168201915b505050505090508c565b60005481565b60008281526001602090815260409091208251610a0c92600b90920191840190610ab2565b507f75a6126ca087fd8d814fb2e5359ec5b6f8f5103f5a924b790759df4f886a202982826040518083815260200180602001828103825283818151815260200191508051906020019080838360005b83811015610a73578181015183820152602001610a5b565b50505050905090810190601f168015610aa05780820380516001836020036101000a031916815260200191505b50935050505060405180910390a15050565b828054600181600116156101000203166002900490600052602060002090601f016020900481019282601f10610af357805160ff1916838001178555610b20565b82800160010185558215610b20579182015b82811115610b20578251825591602001919060010190610b05565b50610b2c929150610b30565b5090565b610b4a91905b80821115610b2c5760008155600101610b36565b9056fea165627a7a72305820616defd936d178e22ec205c15411584c3ec053c3d212e5c6d3044f39f502405d0029",
  "source": "pragma solidity ^0.5.0;\r\n\r\nimport \"./Hospital.sol\";\r\n\r\ncontract Patient {\r\n    uint public patientCount = 0;\r\n\r\n    struct Patient {\r\n        uint id;\r\n        string fname;\r\n        string lname;\r\n        \r\n        uint heartbeat;\r\n        uint CO;\r\n        uint CO2;\r\n        uint body_temp_w;\r\n        uint body_temp_d;\r\n        uint room_temp_w;\r\n        uint room_temp_d;\r\n\r\n        uint hospital_id;\r\n        string diagnosis;\r\n    }\r\n     event patient_node_added(\r\n        uint id,\r\n        string fname,\r\n        string lname,\r\n        \r\n        uint heartbeat,\r\n        uint CO,\r\n        uint CO2,\r\n        uint body_temp_w,\r\n        uint body_temp_d,\r\n        uint room_temp_w,\r\n        uint room_temp_d,\r\n\r\n        uint hospital_id,\r\n        string diagnosis\r\n\r\n    );\r\n\r\n\r\n    event patient_diagnosed(\r\n        uint pid,\r\n        string diagnosis\r\n\r\n    );\r\n    mapping(uint => Patient) public patients;\r\n    constructor() public {\r\n        createPatient('Patient','1',70,10,10,36,5,38,4,1,'');\r\n        createPatient('Patient','2',81,12,8,36,3,37,4,1,'');\r\n    }\r\n\r\n    function createPatient(string memory _fname, string memory _lname, uint _heartbeat,uint _CO, uint _CO2, uint _body_temp_w, uint _body_temp_d, uint _room_temp_w, uint _room_temp_d, uint _hospital_id, string memory _diagnosis) public {\r\n        patientCount ++;\r\n        patients[patientCount] = Patient(patientCount,_fname,_lname,_heartbeat,_CO,_CO2,_body_temp_w,_body_temp_d,_room_temp_w,_room_temp_d,_hospital_id, _diagnosis);\r\n        emit patient_node_added(patientCount,_fname,_lname,_heartbeat,_CO,_CO2,_body_temp_w,_body_temp_d,_room_temp_w,_room_temp_d,_hospital_id, _diagnosis);\r\n\r\n    }\r\n\r\n    function addDiagnosis(uint pid, string memory _diagnosis) public {\r\n        patients[pid].diagnosis = _diagnosis;\r\n        emit patient_diagnosed(pid,_diagnosis);\r\n\r\n    }\r\n\r\n}",
  "sourcePath": "C:/Users/vanda/mp/Blockchain-for-Healthcare-Monitoring/contracts/Patient.sol",
  "compiler": {
    "name": "solc",
    "version": "0.5.0+commit.1d4f565a.Emscripten.clang"
  },
  "schemaVersion": "3.0.1",
  "updatedAt": "2020-11-24T15:42:25.853Z",
  "devdoc": {
    "methods": {}
  },
  "userdoc": {
    "methods": {}
  }
}